:100000000C942A000C9434000C9434000C943400AA
:100010000C9434000C9434000C9434000C94340090
:100020000C9434000C9434000C9434000C94340080
:100030000C9434000C9434000C9434000C94340070
:100040000C9434000C9434000C9434000C94340060
:100050000C94340011241FBECFE5D8E0DEBFCDBF25
:100060000E9436000C9455000C94000087E690E046
:100070000E944A000E9441000E9451000E944600D6
:10008000FBCF80EA87BB81E58DB908958FB9779B57
:10009000FECF089590BD89B988E18AB98EE880BD08
:0E00A00008955F9BFECF8CB10895F894FFCFBA
:00000001FF
